:020000040800F2
:10000000F8CA002029030008FD6F000845510008C8
:10001000D9660008190C00085DD200080000000035
:10002000000000000000000000000000690200085D
:10003000C70E000800000000C502000885A00008E7
:100040004303000843030008430300084303000878
:100050004303000843030008C90E0008D30E00083C
:1000600043030008DD0E0008E70E00084303000804
:10007000690D000843030008430300084303000818
:100080004303000843030008430300084303000838
:100090001D0C00084303000843030008F10E00088C
:1000A0004303000843030008430300084303000818
:1000B0004303000843030008430300084303000808
:1000C00043030008430300084303000843030008F8
:1000D0004303000855A800084303000865A800086A
:1000E00043030008430300084303000843030008D8
:1000F00091A10008430300084303000843030008DC
:1001000043030008430300084303000843030008B7
:10011000430300084303000881A1000843030008CB
:100120004303000843030008790D00088D0D000803
:100130004303000843030008430300084303000887
:100140002D0C000843030008430300080170000859
:100150009D0D000843030008AD0D0008430300088F
:100160004303000843030008430300084303000857
:100170004303000843030008430300080000000095
:10018000430300084303000800F002F800F05CF8A5
:100190000AA090E8000C82448344AAF10107DA45E2
:1001A00001D100F051F8AFF2090EBAE80F0013F0D8
:1001B000010F18BFFB1A43F0010318478410010018
:1001C000A41001000A444FF0000C10F8013B13F09A
:1001D000070408BF10F8014B1D1108BF10F8015BA0
:1001E000641E05D010F8016B641E01F8016BF9D193
:1001F00013F0080F1EBF10F8014BAD1C0C1B09D1EA
:100200006D1E58BF01F801CBFAD505E014F8016B5B
:1002100001F8016B6D1EF9D59142D6D370470000ED
:100220000023002400250026103A28BF78C1FBD8FF
:10023000520728BF30C148BF0B6070471FB510F090
:1002400046FF1FBD10B510BD00F0FAF91146FFF7CB
:10025000F5FF0EF0B3FE00F018FA03B4FFF7F2FF5B
:1002600003BC00F01BFA00002C4B19680868B0E8CA
:10027000F04F80F30988BFF36F8F4FF0000080F3D9
:10028000118870470000000008480068006880F38B
:1002900008884FF0000080F3148862B661B6BFF39F
:1002A0004F8FBFF36F8F00DF00BF00BF08ED00E08E
:1002B000DFF80C00016841F470010160704700BF75
:1002C00088ED00E0EFF30980BFF36F8F134B1A68DE
:1002D0001EF0100F08BF20ED108A20E9F04F1060CB
:1002E00009B44FF0500080F31188BFF34F8FBFF374
:1002F0006F8F10F001F84FF0000080F3118809BCF7
:1003000019680868B0E8F04F1EF0100F08BFB0EC95
:10031000108A80F30988BFF36F8F70479800002020
:10032000EFF30580704700000948804709480047FF
:10033000FEE7FEE7FEE7FEE7FEE7FEE7FEE7FEE795
:10034000FEE7FEE704480549054A064B70470000F2
:100350006DA1000889010008F86A0020F8CA002091
:10036000F88A0020F88A002053EA020C00F0698025
:100370002DE9F04B4FF00006002B1FBFB3FA83F5B9
:1003800003FA05F424FA05F65E4012BF1643B2FAEA
:1003900082F502FA05F4C5F120051EBF22FA05FC1C
:1003A00044EA0C04203556EA044C4FEA144418BFC2
:1003B000641C4FF000084FF00009904271EB030CF1
:1003C00039D3002919BFB1FA81F701FA07F6B0FA5B
:1003D00080F700FA07F6C7F120071EBF20FA07FCD6
:1003E00046EA0C062037B6FBF4FCA7EB0507103FE6
:1003F00007F01F0BCBF120060CFA0BFB2CFA06F6CC
:1004000044BFB3460026202FA4BF5E464FF0000B2A
:100410005BEA060C08BF4FF0010B19EB0B09ABFBB5
:10042000027C48EB0608C01B06FB02CC0BFB03CC8E
:1004300071EB0C01C1E70B46024641464846BDE858
:10044000F08B13B54FF000004FF00001AFF30080C8
:10045000BDE81C40704710B5431C02E010F8011BBA
:1004600071B18107FAD14FF0013202C88C1A8C4366
:1004700014EAC211F9D0C01A0A0603D0C01E10BD7A
:10048000C01A10BD0A0401D0801E10BD0902FCD0A4
:10049000401E10BD032A40F2308010F0030C00F023
:1004A000158011F8013BBCF1020F624498BF11F8AE
:1004B00001CB00F8013B38BF11F8013BA2F1040267
:1004C00098BF00F801CB38BF00F8013B11F00303DF
:1004D00000F02580083AC0F0088051F8043B083A43
:1004E00051F804CBA0E80810F5E7121D5CBF51F8E5
:1004F000043B40F8043BAFF30080D20724BF11F85F
:10050000013B11F801CB48BF11F8012B24BF00F8C3
:10051000013B00F801CB48BF00F8012B704710B534
:10052000203AC0F00B80B1E81850203AA0E81850EB
:10053000B1E81850A0E81850BFF4F5AF5FEA027CAC
:1005400024BFB1E81850A0E8185044BF18C918C01B
:10055000BDE810405FEA827C24BF51F8043B40F8BC
:10056000043B08BF7047D20728BF31F8023B48BFA1
:1005700011F8012B28BF20F8023B48BF00F8012BDF
:1005800070474FF000020429C0F0128010F0030CF5
:1005900000F01B80CCF1040CBCF1020F18BF00F876
:1005A000012BA8BF20F8022BA1EB0C0100F00DB825
:1005B0005FEAC17C24BF00F8012B00F8012B48BF83
:1005C00000F8012B70474FF0000200B51346944627
:1005D0009646203922BFA0E80C50A0E80C50B1F19B
:1005E0002001BFF4F7AF090728BFA0E80C5048BFAF
:1005F0000CC05DF804EB890028BF40F8042B08BF4D
:10060000704748BF20F8022B11F0804F18BF00F848
:10061000012B704770477047704710B500F008F81D
:10062000006810BD10B5044600F002F8046010BD6B
:1006300000487047986A002000487047986A002078
:100640007546FFF7F9FFAE4605006946534620F0B0
:100650000700854618B020B5FFF774FEBDE82040BE
:100660004FF000064FF000074FF000084FF0000B6E
:1006700021F00701AC46ACE8C009ACE8C009ACE821
:10068000C009ACE8C0098D46704710B50446AFF309
:1006900000802046BDE81040FFF7DFBD014918206B
:1006A000ABBEFEE72600020070470000B7EE000A6E
:1006B00080ED000A9FED060A80ED010A9FED040A15
:1006C00080ED020A9FED020A80ED030A70470000E8
:1006D000000000002DE9F0412DED028B0646B0EE42
:1006E000408A0C4615461F4695ED023AF0EE432A25
:1006F00095ED013AB0EE432A95ED003AF0EE431A3B
:1007000094ED023AB0EE431A94ED013AF0EE430A4A
:1007100094ED003AB0EE430A304605F05FFEBDECC2
:10072000028BBDE8F08100004448006AC0F5C87043
:1007300043490880434890F85D0001283BD1414877
:1007400090F85F00012878D13C484078312827D1C3
:100750003A4890ED040AF2EE000AB4EEE00AF1EE37
:1007600010FA10D2384890ED000AB1EE400ADFEDE1
:10077000370A20EE200ABDEEC00A10EE100A00B2C1
:10078000334908810FE0304890ED000AB1EE400A8D
:10079000BDEEC00A10EE100A00B22D49088102E039
:1007A00000202B490881264800881E2845DA0020B1
:1007B0002749088141E02748007A032803D12548CA
:1007C000407A012807D02348007A032835D12148F0
:1007D000407A022831D11F48B0F90C00322810DBD2
:1007E0001C48B0F90C00B0F5257F0ADC164890EDE6
:1007F000000ABDEEC00A10EE100A00B214490881CA
:100800001BE01448B0F90C0010F1320F12DC114853
:10081000B0F90C0010F5257F0CDB0B4890ED000AB9
:10082000B1EE400ABDEEC00A10EE100A00B208494F
:10083000088102E00020064908817047EC6500202D
:10084000040300208C650020000300203333B33FF5
:10085000446A00205C65002010B501221021024886
:1008600001F0D4FC10BD00000000024010B50022D1
:100870001021024801F0CAFC10BD00000000024037
:100880007047000010B501221146024801F0BEFC7D
:1008900010BD00000004024010B5002201210248F2
:1008A00001F0B4FC10BD00000004024010B5437814
:1008B0001B021BB20478234300EE103AB8EEC01AB4
:1008C0001C4BD3ED001A21EE211A81ED001AC378DA
:1008D0001B021BB28478234300EE103AB8EEC01A14
:1008E000144BD3ED001A21EE211A81ED011A437940
:1008F0001B021BB20479234300EE103AB8EEC01A73
:100900000C4BD3ED001A21EE211A81ED021A037A65
:100910001B04C47943EA04238479234300EE903A0C
:10092000B8EE601ADFED041A21EE211A82ED001AEA
:1009300010BD00009001002000401C42704710B51F
:10094000044620460EF089FB10BD10B50446012078
:100950000EF083FB10BD00004278120212B2037841
:100960001A4300EE102AF8EEC00A144A92ED001A5B
:1009700060EE810AC1ED000AC278120212B28378D9
:100980001A4300EE102AF8EEC00A0C4A92ED001A43
:1009900060EE810AC1ED010A4279120212B20379B6
:1009A0001A4300EE102AF8EEC00A044A92ED001A2B
:1009B00060EE810AC1ED020A704700009401002038
:1009C00010B50024FFF75CFFFFF7B8FF0DF0AEF89D
:1009D00010B144F0800402E00DF00EF804430DF075
:1009E0009DFA10B144F0400402E00DF01DFA0443FA
:1009F000204610BD2DE9FC4105460E461746002055
:100A000000900190FFF732FF922000F0D1F806220B
:100A10006946122000F0ACF8FFF71EFF9DF80100B8
:100A2000000200B29DF8001040EA010400EE104AF6
:100A3000B8EEC00A4C48D0ED000A20EE200A86ED40
:100A4000000A9DF80300000200B29DF8021040EA7F
:100A5000010400EE104AB8EEC00A4348D0ED000A87
:100A600020EE200A86ED010A9DF80500000200B282
:100A70009DF8041040EA010400EE104AB8EEC00AE6
:100A80003948D0ED000A20EE200A86ED020AFFF771
:100A900003FF08226946002000F06AF8FFF7F2FE23
:100AA0009DF800000F2838D19DF80300000200B225
:100AB0009DF8021040EA010400EE104AB8EEC00AA8
:100AC0002A48D0ED000A20EE200A85ED000A9DF8A4
:100AD0000500000200B29DF8041040EA010400EE97
:100AE000104AB8EEC00A2148D0ED000A20EE200AD4
:100AF00085ED010A9DF80700000200B29DF806107E
:100B000040EA010400EE104AB8EEC00A1748D0EDE2
:100B1000000A20EE200A85ED020AFFF7A7FEA220B8
:100B200000F046F802226946222000F021F8FFF783
:100B300093FE9DF80000C0009DF8011040EA61148A
:100B4000B4F5806F02DBA4F5006004B200EE104A39
:100B5000F8EEC00AB4EE001AB3EE070A00EE810AFE
:100B600087ED000ABDE8FC8190010020940100207F
:100B700070B506460C46154646F0800000F018F8A1
:100B800006E0552000F014F82070641C681EC5B201
:100B9000002DF6D170BD70B504460D4644F08000BE
:100BA00000F006F8552000F003F8287070BD000032
:100BB00001B582B04FF47A70012301AA02A9009016
:100BC000024803F06BFB9DF804000EBDC406002034
:100BD00010B502461378DB00547843EA6410B0F590
:100BE000806F02DBA0F5006318B200EE100AF8EE89
:100BF000C00AB4EE001AB3EE070A00EE810A81EDD6
:100C0000000A10BD70B505460C462846FFF7D0FF18
:100C10002046FFF7CDFF70BD00BFFEE710B50248CC
:100C200000F0F5FB10BD00002006002010B50248C2
:100C300000F0EDFB10BD00004806002010B50E4886
:100C40000EF0F3F90C4800F0C4FE0B480068406950
:100C500040F0020008490968486108480EF0E5F9CB
:100C6000064800F0B6FE05480068406940F0020002
:100C700002490968486110BD20060020480600208E
:100C80000346042B15D007DC7BB1012B0ED0022BC1
:100C90000DD0032B12D10BE0202B0BD0212B0AD02F
:100CA000222B09D0232B09D107E008E007E006E05A
:100CB00005E004E003E002E001E000E000BF00BF67
:100CC000002070470020704710B5002204490548F5
:100CD0000AF06DF8044903480AF05AF8002010BDE4
:100CE00080170020A40A0020800F002070B5044661
:100CF0000D46214609480AF04BF808480AF014F856
:100D0000214607482A68FFF7C5FB05480FF05EFB40
:100D100003480FF037FB002070BD0000A40A00203C
:100D20002466002010B503460C460021084610BD7D
:100D30002DE9F04104460D4600260A48D0F8BC7261
:100D4000D7F8140210B10120BDE8F0812A462146EF
:100D500004480AF02CF803480AF0DCF8064630464E
:100D6000F2E70000A40A002010B5024800F0FCFEE3
:100D700010BD0000FC09002010B50DF01BFC02485E
:100D800000F0F2FE10BD00001C07002010B5024864
:100D900000F0EAFE10BD00007C07002010B50248FC
:100DA00000F0E2FE10BD00003C09002010B5024832
:100DB00000F0DAFE10BD00009C0900200146087812
:100DC00010381823B0FBF3F20848805CC865032A8A
:100DD00005D908686FF30900001D886503E00868FD
:100DE0006FF309008865886D704700008C11010859
:100DF000014600208A6A8B69CBB932B1012A0DD035
:100E0000022A03D0032A10D10EE000BFCB6A03F000
:100E10008073B3F1807F00D1012007E0CB6AB3F18A
:100E2000C07F00D1012001E000E000BF34E08B6909
:100E3000B3F5005F1AD132B1012A07D0022A03D0DC
:100E4000032A11D10AE000BF01200EE0CB6A03F0B3
:100E50008073B3F1807F00D1012006E0CB6AB3F14B
:100E6000C07F00D1012000E000BF15E032B1012AAF
:100E700005D0022A04D0032A0CD103E000BF00BF32
:100E8000012008E0CB6A03F08073B3F1807F00D1CA
:100E9000012000E000BF00BF704730B5046824683F
:100EA00024F4802405682C60046863608468402C06
:100EB00004D10468A2600468E16003E00468A160F2
:100EC0000468E26030BD704710B5012001F096F86B
:100ED00010BD10B5022001F091F810BD10B508202A
:100EE00001F08CF810BD10B5102001F087F810BD8E
:100EF00010B5202001F082F810BD72B600BFFEE7E9
:100F00002248007A032803D12048407A012804D0DF
:100F10001F4890F85D00012831D11E4890ED000A6D
:100F20001B4880ED150A1C4890ED060A1B4880ED11
:100F3000000A90ED000ADFED1A0AB4EEE00AF1EEC5
:100F400010FA05DD174890ED000A114880ED150AEA
:100F50000F4890ED150AB1EE400ABDEEC00A10EE42
:100F6000100A00B210490881094890ED150ABDEE3B
:100F7000C00A10EE100A01B20B48018505E00020FE
:100F80000949088100210848018570475C650020F7
:100F90008C6500200C030020EC6500200803002075
:100FA0000000EC41100300204466002070B50A48A0
:100FB0000468001D0568001D0668344454B1082209
:100FC0000649204604F06EFE0422044910312846EA
:100FD00004F068FE70BD0000107AFF1F5A00002068
:100FE000F0B504460D461E4694F8207020688368CC
:100FF000A86800B900E000BF012F01D0022F7CD10A
:1010000003F0806030B903F0006018B903F080503D
:10101000002873D0C3F30161022905D9606A40F446
:10102000000060620120F0BD012088403060A868A7
:1010300060B9B5F800C0E86840EA4C5C206800F58B
:10104000C07000EB0110C0F800C00FE0D5E901C08E
:1010500040EACC00D5F80CC040EA0C00D4F800C03F
:101060000CF5C07C0CEB011CCCF80000D5F810C0CE
:10107000206800F5C07000EB0110C0F804C0287DA6
:1010800001280ED1206800F5C07000EB0110406807
:1010900040F4807C206800F5C07000EB0110C0F8BF
:1010A00004C0D079000692F806C040EA0C4092F8DD
:1010B00005C040EA0C2C10794CEA000C206800F5C1
:1010C000C07000EB0110C0F80CC0D078000692F898
:1010D00002C040EA0C4092F801C040EA0C2092F8AD
:1010E00000C040EA0C00D4F800C00CF5C07C0CEB4A
:1010F000011CCCF80800206801E016E00FE000F5C4
:10110000C07000EB0110006840F0010C206800F591
:10111000C07000EB0110C0F800C0002083E7606AD7
:1011200040F40010606201207DE7606A40F4802096
:101130006062012077E70000F0B504460A462168A6
:1011400094F82050012D01D0022D7ED1424901F5A5
:101150000071086840F001000860086820F47C50C5
:1011600008600868566A40EA06200860107D00F0B2
:101170001F06012000FA06F3C8699843C861A1F56B
:101180000071D069C8B9D1F80C029843C1F80C02BB
:10119000908880B2968940EA064601F5107057693A
:1011A00040F83760108880B2168940EA064601F59B
:1011B0001070576900EBC7004660D069012819D14B
:1011C000D1F80C021843C1F80C02908880B216883E
:1011D00040EA064601F51070576940F8376090897B
:1011E00080B2168940EA064601F51070576900EB97
:1011F000C7004660906928B9D1F804029843C1F845
:10120000040204E0D1F804021843C1F80402106992
:1012100028B9D1F814029843C1F8140204E0D1F8B7
:1012200014021843C1F81402106A012804D1D1F83D
:101230001C021843C1F81C02D1F8000220F0010082
:10124000C1F800020020F0BDFFE7606A40F4802092
:1012500060620120F7E7000000640040704770B54D
:10126000044694F82050012D01D0022D7DD151B9B2
:101270002068C06800F0030080B9606A40F4001084
:101280006062012070BD2068006900F0030028B989
:10129000606A40F4001060620120F3E7206800F506
:1012A000D87000EB0110006800F0040090609068B6
:1012B00040B9206800F5D87000EB01100068400DBF
:1012C000106007E0206800F5D87000EB011000689E
:1012D000C0085060206800F5D87000EB011000686D
:1012E00000F00200D060206800F5D87000EB01101B
:1012F000406800F00F001061206800F5D87000EB26
:101300000110406800F47F40000A9061206800F5F9
:10131000D87000EB01104068000C5061206800F5A7
:10132000D87000EB011080681870206800F5D87044
:1013300000EB0110806800F47F40000A58702068BC
:1013400000F5D87000EB0110806800F47F00000CFD
:101350009870206800F5D87000EB01108068000ECE
:10136000D870206800F5D87000E02FE000EB011085
:10137000C0681871206800F5D87000EB0110C068D3
:1013800000F47F40000A5871206800F5D87000EB27
:101390000110C06800F47F00000C9871206800F50F
:1013A000D87000EB0110C068000ED87131B9206808
:1013B000C06840F020002668F06005E02068006901
:1013C00040F020002668306100205BE7606A40F44E
:1013D00080206062012055E70146002091F820201E
:1013E000012A01D0022A11D10B689B6803F08063A7
:1013F00003B1401C0B689B6803F0006303B1401C01
:101400000B689B6803F0805303B1401C70472DE9C3
:10141000F05F04460025206846692068D0F80490F3
:10142000206887682068D0F80CA02068D0F810B039
:101430002068D0F8188006F00100002855D007F089
:101440000100C0B101202168886007F0020018B1D6
:10145000204600F0EEFA0EE007F0040010B145F46B
:10146000006508E007F0080010B145F4805502E07F
:10147000204600F0DDFA07F48070C8B14FF48070A8
:101480002168886007F4007018B1204600F0D3FA94
:101490000EE007F4806010B145F4005508E007F451
:1014A000006010B145F4804502E0204600F0C2FA29
:1014B00007F48030C8B14FF480302168886007F4A9
:1014C000003018B1204600F0B8FA0EE007F4802092
:1014D00010B145F4004508E007F4002010B145F4D0
:1014E000803502E0204600F0A7FA06F0080038B187
:1014F0000AF0100020B145F4007510202168C86082
:1015000006F0040040B10AF0080028B10820216864
:10151000C860204600F00CFA06F0020038B12068DE
:10152000C06800F0030010B1204600F003FA06F096
:10153000400038B10BF0100020B145F48065102058
:101540002168086106F0200040B10BF0080028B1C6
:10155000082021680861204600F038FA06F01000E3
:1015600038B12068006900F0030010B1204600F097
:101570002EFA06F4003040B109F0100028B1102016
:1015800021684860204600F023FA06F4803040B11C
:1015900009F0080028B1082021684860204600F0C2
:1015A0004DFA06F4004088B309F0040078B306F45D
:1015B000807020B108F0010008B145F0010506F483
:1015C000007020B108F0020008B145F0020506F4F1
:1015D000806020B108F0040008B145F0040506F46D
:1015E0000060A0B108F0700088B108F070004028D9
:1015F00017D006DC10280BD020280CD0302819D1A9
:101600000CE0502810D0602814D110E01DE019E043
:1016100045F008050FE045F010050CE045F0200509
:1016200009E045F0400506E045F0800503E045F49B
:10163000807500E000BF00BF2068806920F0700066
:10164000216888610420216848602DB1606A2843C0
:1016500060622046FFF702FEBDE8F09F70B50446C9
:101660000CB9012070BD94F8200010B9204600F09C
:10167000AFF82068006840F001002168086000F0C1
:10168000CBFD05460DE000F0C7FD401B0A2808D938
:10169000606A40F400306062052084F82000012078
:1016A000E0E72068406800F001000028EBD02068E7
:1016B000006820F002002168086000F0ADFD0546DA
:1016C0000DE000F0A9FD401B0A2808D9606A40F42B
:1016D00000306062052084F820000120C2E7206805
:1016E000406800F002000028EBD1207E012806D1DE
:1016F0002068006840F080002168086005E02068EC
:10170000006820F0800021680860607E012806D112
:101710002068006840F040002168086005E020680B
:10172000006820F0400021680860A07E012806D1F2
:101730002068006840F020002168086005E020680B
:10174000006820F0200021680860E07E012806D1B2
:101750002068006820F010002168086005E020681B
:10176000006840F0100021680860207F012806D141
:101770002068006840F008002168086005E02068E3
:10178000006820F0080021680860607F012806D109
:101790002068006840F004002168086005E02068C7
:1017A000006820F0040021680860D4E902010843C1
:1017B00021690843616908436168491E084321683B
:1017C000C86100206062012084F82000002049E701
:1017D00010B586B00446142101A8FEF7F4FE4E4968
:1017E0002068884241D14D480068401C4B49086040
:1017F0000846006801280FD100BF0020009048482B
:10180000006840F00070464908600846006800F033
:101810000070009000BF00BF00BF00200090404853
:101820001038006840F008003D491039086008464B
:10183000006800F00800009000BF00BF0320019086
:1018400002200290002003900320049009200590BC
:1018500001A9344800F0E0FB00220521142001F02A
:1018600017F9142001F004F954E02F492068884248
:1018700050D100BF002000902948006840F08060EF
:10188000274908600846006800F08060009000BFAB
:1018900000BF22480068401C2049086008460068D4
:1018A00001280FD100BF002000901D48006840F0C3
:1018B00000701B4908600846006800F00070009046
:1018C00000BF00BF00BF002000901548103800681E
:1018D00040F002001249103908600846006800F024
:1018E0000200009000BF00BF602001900220029023
:1018F00000200390032004900920059001A90B48C3
:1019000000F08AFB00220521402001F0C1F84020B0
:1019100001F0AEF806B010BD0064004018000020D1
:1019200040380240000C02400068004000040240C1
:101930007047000010B58AB0044601AB03AA00212D
:101940002046FFF78CFC40F202220398811A904255
:1019500011D005DC0D2821D0A0F2012020BB04E02D
:1019600001290FD006291FD112E0012201A9134835
:1019700004F0D6FE19E0022201A91048203004F03C
:10198000CFFE12E0032201A90D4804F0A7FE0CE0EF
:10199000082201A90B4805F01FF806E00D2201A955
:1019A000094804F00BFF00E000BF00BF2068406959
:1019B00040F00200216848610AB010BD4466002072
:1019C000446A00206C6A0020086A00207047704753
:1019D000704770B5044694F82000012822D10220F7
:1019E00084F820002068006820F001002168086069
:1019F00000F012FC05460DE000F00EFC401B0A282A
:101A000008D9606A40F400306062052084F8200044
:101A1000012070BD2068406800F001000028EBD173
:101A20006062F6E7606A40F4002060620120F0E73F
:101A3000704770477047704770477047704710B5E0
:101A400004460CB9012010BD607920B90020207136
:101A5000204600F005F8012060710020F3E7000047
:101A600008B50A4A016891420FD100BF00210091D8
:101A70000749096841F48051054A11601146096817
:101A800001F48051009100BF00BF08BD003002404A
:101A90003038024070B50446A56D00F0BDFB064627
:101AA00094F83500022808D08020606500BF00202F
:101AB00084F8340000BF012070BD2068006820F069
:101AC0001600216808602068406920F080002168C5
:101AD0004861206C08B9A06C28B12068006820F02B
:101AE0000800216808602068006820F00100216873
:101AF000086010E000F090FB801B05280BD9202027
:101B00006065032084F8350000BF002084F83400AD
:101B100000BF0320D0E72068006800F00100002823
:101B2000E8D194F85C103F208840A860012084F838
:101B3000350000BF002084F8340000BF00BFBBE7C1
:101B4000014691F83500022803D080204865012025
:101B50007047052081F835000868006820F0010012
:101B60000A6810600020F3E7F8B5044600200090F2
:101B70008C4800684FF41651B0FBF1F7A56D2E6844
:101B800094F85C1008208840304098B120680068C4
:101B900000F0040070B12068006820F004002168A3
:101BA000086094F85C1008208840A860606D40F0E0
:101BB0000100606594F85C1001208840304068B1F5
:101BC0002068406900F0800040B194F85C1001206A
:101BD0008840A860606D40F00200606594F85C1079
:101BE00004208840304068B12068006800F002009E
:101BF00040B194F85C1004208840A860606D40F00B
:101C00000400606594F85C1010208840304078B380
:101C10002068006800F0080050B394F85C101020B1
:101C20008840A8602068006800F4802080B12068A7
:101C3000006800F4002028B9206CC8B12046216C4F
:101C4000884715E0A06C98B12046A16C88470FE04A
:101C50002068006800F4807028B92068006820F0CF
:101C6000080021680860206C10B12046216C88476C
:101C700094F85C10202088403040002865D020680F
:101C8000006800F0100000285FD094F85C1020205D
:101C90008840A86094F83500052828D1206800689D
:101CA00020F01600216808602068406920F080005C
:101CB00021684861206C08B9A06C28B120680068D0
:101CC00020F008002168086094F85C103F208840EC
:101CD000A860012084F8350000BF002084F834009B
:101CE00000BF206D10B12046216D8847F8BD2068E7
:101CF000006800F4802080B12068006800F40020B3
:101D000028B9606C10B12046616C88471DE0E06B1B
:101D1000D8B12046E16B884717E02068006800F4DE
:101D2000807068B92068006820F0100021680860A1
:101D3000012084F8350000BF002084F8340000BF83
:101D4000E06B10B12046E16B8847606D38B3606D81
:101D500000F00100F0B1052084F83500206800682B
:101D600020F001002168086000BF0098401C00902E
:101D7000B84200D905E02068006800F001000028A2
:101D8000F3D100BF012084F8350000BF002084F8A3
:101D9000340000BFE06C10B12046E16C884700BF02
:101DA000A4E70000940000202DE9F041044600253E
:101DB00000F032FA074614B90120BDE8F081606AEC
:101DC00000B100BF022084F8350000BF002084F875
:101DD000340000BF2068006820F00100216808601E
:101DE0000AE000F019FAC01B052805D9202060651B
:101DF000032084F83500E0E72068006800F0010067
:101E00000028EED12068056821480540D4E9010189
:101E10000843E16808432169084361690843A169EF
:101E20000843E1690843216A08430543606A0428BE
:101E300003D1D4E90B0108430543206805602068FD
:101E4000456925F00705606A0543606A04280DD1DD
:101E5000A06A0543E06A48B12046FEF7C9FF28B1F1
:101E600040206065012084F83500A6E720684561C0
:101E70002046FEF7A3FF064694F85C103F208840FA
:101E8000B06000206065012084F83500002094E7F0
:101E90003F8010F02DE9F04104460D4616461F46DE
:101EA0004FF0000800BF94F83400012802D102204E
:101EB000BDE8F081012084F8340000BF94F83500BB
:101EC000012811D1022084F83500002060653B46CE
:101ED000324629462046FEF7E0FF2068006840F0C1
:101EE00001002168086006E000BF002084F834008B
:101EF00000BF4FF002084046DAE7000070B5044624
:101F000000F08AF906462546681C10B1044800789E
:101F1000054400BF00F080F9801BA842FAD370BDD1
:101F20009000002010B50446102C12D12A480078E9
:101F300040F00100284908702848007840F001006E
:101F40002649087026480078002844D00CF022FA70
:101F500041E0202C0BD12348007840F001002149BA
:101F600008701F48007880B30CF014FA33E0082C96
:101F700016D11D48007840F001001B490870084642
:101F8000007800F001000870F8B10846007820F0F1
:101F9000010008700846007840F0020008701AE05E
:101FA000012C13D10EF050FC012814D00F49104819
:101FB00000680EF0C9F80D48006830B120070D49DF
:101FC0000860BFF34F8FBFF36F8F04E0022C02D184
:101FD00001200949087010BDE2010020E301002042
:101FE000E5010020E1010020E40100208C02002036
:101FF000BC01002004ED00E0E701002010B504461C
:1020000004480068204020B1024804602046FFF7E1
:1020100089FF10BD143C0140F8B502460B4600256F
:10202000002400200021D6E0012606FA01F51E68F2
:1020300006EA0504AC4274D11E7906F00306012EAF
:1020400004D01E7906F00306022E13D190684F00CB
:102050000326BE40B0434F00DE68BE403043906070
:10206000506801268E40B0431E79C6F300168E409C
:10207000304350601E7906F00306032E09D0D06865
:102080004F000326BE40B0434F009E68BE40304321
:10209000D0601E7906F00306022E13D1CF0802F19C
:1020A000200656F827004E07F70E0F26BE40B04315
:1020B0004F07FF0E1E69BE403043CF0802F12006D5
:1020C00046F8270010684F000326BE40B0431E7933
:1020D00006F003064F00BE40304310605E6806F411
:1020E0004036002E76D000BF002600963C4E366863
:1020F00046F480463A4F3E603E46366806F48046D7
:10210000009600BF00BF374E8F0856F827008E0795
:10211000370F0F26BE40B043334EB24202D10026E5
:1021200024E057E0314EB24201D101261EE0304E8C
:10213000B24201D1022619E02E4EB24201D103264D
:1021400014E02D4EB24201D104260FE02B4EB242D4
:1021500001D105260AE02A4EB24201D1062605E049
:10216000284EB24201D1072600E008268F073F0F14
:10217000BE4030431B4E8F0846F82700224E306881
:10218000A0435E6806F4801606B120431E4E306000
:10219000361D3068A0435E6806F4001606B1204381
:1021A000194E361D3060184E361F3068A0435E68E9
:1021B00006F4003606B12043134E361F3060361F3A
:1021C0003068A0435E6806F4803606B120430E4EA8
:1021D000083E3060491C1029FFF426AFF8BD00000E
:1021E0004438024008380140000002400004024028
:1021F00000080240000C024000100240001402409F
:1022000000180240001C0240083C01400AB18161F4
:1022100001E00B04836170470148006870470000CB
:102220008800002070B504460CB9012070BD94F8F8
:102230003D0028B9002084F83C00204600F006FB51
:10224000242084F83D002068006820F00100216807
:1022500008602068006840F4004021680860206839
:10226000006820F400402168086001F033FC054656
:102270005C496068884206D85B48854201D20120EB
:1022800007E0002005E05948854201D2012000E026
:102290000020012800D1C9E75548B5FBF0F62068B9
:1022A000406820F03F003043216848604D49606835
:1022B000884201D8701C07E04FF4967070434FF4C9
:1022C0007A71B0FBF1F0401C2168096A21F03F01EE
:1022D00008432168086243496068884214D8681E30
:1022E00061684900B0FBF1F0401CC0F30B0004280A
:1022F00001D204203DE0681E61684900B0FBF1F0A6
:10230000401CC0F30B0034E0A06838B9681E616857
:1023100001EB4101B0FBF1F0401C0AE0681E61686E
:1023200001EBC10202EB0111B0FBF1F0401C40F4E3
:102330008040C0F30B0008B901201AE0A06848B93A
:10234000681E616801EB4101B0FBF1F0401CC0F375
:102350000B000CE0681E616801EBC10202EB011189
:10236000B0FBF1F0401CC0F30B0040F4804040F49F
:1023700000402168C9694CF6FF7291430843216807
:10238000C861D4E9070108432168096821F0C00148
:10239000084321680860D4E903100843216889686C
:1023A00048F2FF329143084321688860D4E905016F
:1023B00008432168C96821F0FF0108432168C8600B
:1023C0002068006840F00100216808600020206457
:1023D000202084F83D000020206384F83E0000BFE8
:1023E00024E70000A086010080841E0000093D0053
:1023F00040420F002DE9FC5F04460F469046994687
:10240000DDE90CAB0E9EFFF707FF054694F83D0093
:10241000202870D119230122B0492046009503F0ED
:1024200001F810B10220BDE8FC9F00BF94F83C0009
:10243000012801D10220F6E7012084F83C0000BF0A
:102440002068006800F0010028B92068006840F0AA
:102450000100216808602068006820F4006021689D
:102460000860222084F83D00402084F83E000020CF
:102470002064C4F824A0A4F82AB0608D2085984870
:10248000E0624B46424639462046CDE9006502F0FF
:102490007BFE08B10120C6E7208D88B900BF00206F
:1024A000019020684069019020688069019000BF18
:1024B00000BF2068006840F400702168086040E0B8
:1024C000208D012818D12068006820F480602168E0
:1024D000086000BF002001902068406901902068DA
:1024E0008069019000BF00BF2068006840F4007060
:1024F0002168086025E0EFE0208D022816D12068D1
:10250000006820F48060216808602068006840F45A
:1025100000602168086000BF0020019020684069C9
:10252000019020688069019000BF0AE000BF002090
:10253000019020684069019020688069019000BF87
:1025400000BFBAE0208D03287ED8208D012815D148
:102550002A463146204603F00AF808B1012062E716
:1025600020680069616A0870606A401C6062208DA2
:10257000401E2085608D401E60859EE0208D0228D3
:102580002AD13346002257492046009502F04AFFDF
:1025900008B1012047E72068006840F40070216816
:1025A000086020680069616A0870606A401C6062A7
:1025B000208D401E2085608D401E6085206800694A
:1025C000616A0870606A401C6062208D401E208530
:1025D000608D401E608570E03346002241492046F0
:1025E000009502F01FFF08B101201CE72068006879
:1025F00020F480602168086020680069616A0870C2
:10260000606A401C6062208D401E2085608D401EE7
:1026100060853346002233492046009502F002FFD0
:1026200008B10120FFE62068006840F400702168CE
:10263000086020680069616A0870606A401C606216
:10264000208D401E208500E010E0608D401E6085DA
:1026500020680069616A0870606A401C6062208DB1
:10266000401E2085608D401E608526E02A4631464A
:10267000204602F07CFF08B10120D4E62068006902
:10268000616A0870606A401C6062208D401E20856F
:10269000608D401E608520684069C0F3800060B195
:1026A00020680069616A0870606A401C6062208D61
:1026B000401E2085608D401E6085208D00287FF49F
:1026C00041AF202084F83D00002084F83E0000BF88
:1026D00084F83C0000BFA6E60220A4E60200100039
:1026E0000000FFFF040001002DE9FC5F04460F46D7
:1026F00090469946DDE90CAB0E9EFFF78DFD054631
:1027000094F83D0020287DD1192301224D4920460F
:10271000009502F087FE10B10220BDE8FC9F00BFCB
:1027200094F83C00012801D10220F6E7012084F84A
:102730003C0000BF2068006800F0010028B9206854
:10274000006840F00100216808602068006820F4FB
:10275000006021680860212084F83D00402084F852
:102760003E0000202064C4F824A0A4F82AB0608DA4
:1027700020853548E0624B46424639462046CDE941
:10278000006502F0B1FD08B10120C6E731E02A463C
:102790003146204602F02BFF50B1206C042805D1B1
:1027A0002068006840F40070216808600120B4E7E8
:1027B000606A007821680861606A401C6062208D50
:1027C000401E2085608D401E608520684069C0F3F2
:1027D000800070B1208D60B1606A00782168086166
:1027E000606A401C6062208D401E2085608D401E06
:1027F0006085208D0028CAD12A463146204602F045
:10280000E3FD00E01CE050B1206C042805D12068F5
:10281000006840F400702168086001207DE72068AE
:10282000006840F4007021680860202084F83D00B2
:10283000002084F83E0000BF84F83C0000BF6CE735
:1028400002206AE7020010000000FFFF10B586B00A
:102850000446142101A8FDF7B6FE2A4920688842E3
:102860004DD100BF002000902748006840F00400D0
:10287000254908600846006800F00400009000BF89
:1028800000BF00BF002000900846006840F0010033
:1028900008600846006800F00100009000BF00BF1B
:1028A000481501901220029000200390032004900C
:1028B0000420059001A91548FFF7AEFB4FF4807086
:1028C0000190122002900020039003200490042025
:1028D000059001A90E48FFF79FFB00BF0020009064
:1028E00009481030006840F40000074910310860C2
:1028F0000846006800F40000009000BF00BF06B06A
:1029000010BD0000005C004030380240000802406A
:10291000000002400348006803490978084401495F
:1029200008607047880000209000002010B50D4816
:10293000006840F400700B4908600846006840F4E5
:10294000806008600846006840F4807008600320DA
:1029500000F0DCF80F2000F007F800F05FF800202E
:1029600010BD0000003C02402DE9F04188B0044653
:102970000027B84600BF002001902348006840F0BF
:102980001000214908600846006800F0100001901E
:1029900000BF00BF02A903A801F074F8069F1FB989
:1029A00001F098F8054602E001F094F84500174858
:1029B000B5FBF0F0A0F1010815481649086040F297
:1029C000E7311448C160C0F80480002101618160D2
:1029D000816101F00FFE064696B90E4801F07AFEBD
:1029E00006466EB9362000F043F8102C07D20022BC
:1029F0002146362000F04CF80748046000E001262C
:102A0000304608B0BDE8F0814038024040420F0037
:102A1000001000405C0A00208C00002008B500BFB8
:102A2000002000901148006840F480400F49086081
:102A30000846006800F48040009000BF00BF00BF5F
:102A400000200090081F006840F08050091F0860B7
:102A50000846006800F08050009000BF00BF0022D0
:102A60000F21901E00F014F808BD00004438024009
:102A700001460846002809DB00F01F0301229A40A6
:102A800043099B0003F1E023C3F8002100BF704716
:102A90002DE9F05F80460D46164600270AF060FDDE
:102AA000074639462A46334601F00700C0F1070AB7
:102AB000BAF1040F02D94FF0040A01E0C0F1070A8D
:102AC000D14600F1040ABAF1070F02D24FF0000A12
:102AD00001E0A0F1030AD4464FF0010A0AFA09FA0C
:102AE000AAF1010A0AEA020A0AFA0CFA4FF0010BEB
:102AF0000BFA0CFBABF1010B0BEA030B4AEA0B04DC
:102B0000214640460AF034FDBDE8F09F00BF00F0CA
:102B10000702064B19684FF6FF031940044B0B439D
:102B200043EA0221014B196000BF70470CED00E041
:102B30000000FA05704702461068416200207047A5
:102B4000F0B5034615461868446A21B944EA0540C1
:102B50001E68B06219E01868806A04EB1044002215
:102B600008E0186800F5827050F8220004EB104469
:102B7000501CC2B2481E9042F3D844EA0547186878
:102B800000F582704E1E40F826700020F0BD10B592
:102B90000446D4F8080508F028FE10BD70B50446B8
:102BA0000D4605EBC50304F13C0101EB83010A6905
:102BB0002946D4F8080508F013FD70BD70B5044629
:102BC0000D4605EBC50304F51F7101EB83010A698E
:102BD0002946D4F8080508F087FD70BD10B50446F5
:102BE000D4F8080508F004FE10BD2DE9F0410446B4
:102BF0000D4605F08000802808D105F00F0000EB9D
:102C0000C00104F13C0000EB810607E005F00F0075
:102C100000EBC00104F51F7000EB8106314620680F
:102C20000AF0D8F807463846BDE8F08170B504468A
:102C30000E4606F0800080280AD106F00F0000EB57
:102C4000C00104F13C0000EB81050120687009E03F
:102C500006F00F0000EBC00104F51F7000EB8105CA
:102C60000020687006F00F00287000BF94F8BC04C4
:102C7000012801D1022070BD012084F8BC0400BFEE
:102C80002946206809F086FB00BF002084F8BC04B8
:102C900000BF00BFEFE770B504460E4606F00F0018
:102CA0006168884201D9012070BD06F0800080284B
:102CB0000AD106F00F0000EBC00104F13C0000EB6C
:102CC00081050120687009E006F00F0000EBC001EB
:102CD00004F51F7000EB8105002068700020A870CB
:102CE00006F00F00287000BF94F8BC04012801D141
:102CF0000220D9E7012084F8BC0400BF29462068DF
:102D000009F030FE00BF002084F8BC0400BF00BF03
:102D1000CAE7024601F00F0000EBC00302F51F7086
:102D200000EB8300006A70472DE9F04705460E4628
:102D300090461F464FF0000906F0800080280AD117
:102D400006F00F0000EBC00105F13C0000EB810430
:102D50000120607009E006F00F0000EBC00105F5EE
:102D60001F7000EB81040020607006F00F002070DF
:102D7000C4F80C802771607808B120782081022F78
:102D800001D10020607100BF95F8BC04012802D178
:102D90000220BDE8F087012085F8BC0400BF214671
:102DA000286809F00DFA00BF002085F8BC0400BFB8
:102DB0004846EEE72DE9F04104460E461746984690
:102DC00006F00F0000EBC00104F51F7000EB810559
:102DD0002F61C5F8188000202862687006F00F0087
:102DE00028702069012800D16F6106F00F0028B912
:102DF000227C2946206809F08FFC04E0227C2946C9
:102E0000206809F043FE0020BDE8F08170B504465B
:102E10000D4605F00F006168884201D9012070BDA0
:102E200005F0800080280AD105F00F0000EBC001FA
:102E300004F13C0000EB81060120707007E005EB17
:102E4000C50104F51F7000EB8106002070700120A1
:102E5000B07005F00F00307000BF94F8BC0401287A
:102E600001D10220DBE7012084F8BC0400BF314619
:102E7000206809F0BEFD05F00F0028B9217C04F29E
:102E8000C442206809F036FD00BF002084F8BC046D
:102E900000BF00BFC3E72DE9F04104460E461746C8
:102EA000984606F00F0000EBC00104F13C0000EB77
:102EB00081052F61C5F81880002028620120687004
:102EC00006F00F0028702069012800D16F6106F01C
:102ED0000F0028B9227C2946206809F01DFC04E077
:102EE000227C2946206809F0D1FD0020BDE8F08150
:102EF0002DE9FE4F0446D4F800B05E4620680AF083
:102F000050F8002874D120680AF08AF808B9BDE8A2
:102F1000FE8F40F608008059C0F30D20C4F8FC0471
:102F200020680AF07DF800F00200022805D1206830
:102F3000406900F002002168486120680AF070F8DA
:102F400000F01000102845D12068806920F01000A2
:102F500021688861DBF8209009F00F0000EBC001C8
:102F600004F51F7000EB810AC9F3434002281AD10F
:102F700047F6F07009EA000030B3C9F30A12584668
:102F8000DAF810100AF051F8C9F30A11DAF8100053
:102F90000844CAF81000C9F30A11DAF820000844FE
:102FA000CAF8200010E0C9F3434006280CD10822DB
:102FB00004F2C44158460AF038F8C9F30A11DAF8A5
:102FC00020000844CAF820002068806940F0100002
:102FD0002168886120680AF023F800F40020B0F529
:102FE000002F7BD10025206809F0EAFF029072E0F3
:102FF000E1E2029800F00100002868D0E9B2206800
:103000000AF001F8804608F0010048B1012106F5F8
:10301000306000EB451081602946204604F02AF814
:1030200008F00800082809D1082106F5306000EBF7
:10303000451081602946204603F0EAFF08F01000A1
:10304000102805D1102106F5306000EB4510816095
:1030500008F00200022824D1DBF8140000F0800000
:10306000802807D140F60400805940F4806140F682
:103070000400815105EBC50104F51F7000EB810AC6
:103080009AF80300012806D100208AF80300E9B26B
:10309000204600F09BFA022106F5306000EB451057
:1030A000816008F02000202805D1202106F530603D
:1030B00000EB4510816008F40050B0F5005F06D1C8
:1030C0004FF4005106F5306000EB451081606D1C37
:1030D000029840080290029800288AD1206809F0DE
:1030E0009FFF00F48020B0F5802F7DD1206809F08B
:1030F0005DFF029000259AE0029800F00100002890
:1031000073D0E9B2206809F065FF804608F001003D
:10311000F0B305F00F0101208840019040F6340023
:103120008159019821EA000040F6340188510121BB
:1031300006F5106000EB451081602069012824D15C
:1031400005EBC50104F13C0000EB810005EBC50275
:10315000016904F13C0000EB8200C068014405EB0A
:10316000C50204F13C0000EB820001616DB905EB82
:10317000C50104F13C0000EB8100806928B904F22C
:10318000C4420121206809F0B5FBE9B2204600E005
:1031900001E0FFF703FD08F00800082805D1082129
:1031A00006F5106000EB4510816008F01000102853
:1031B00005D1102106F5106000EB4510816008F084
:1031C0004000402805D1402106F5106000EB451075
:1031D000816008F0020002281DD12946584609F0F6
:1031E000A1FE05EBC50101E025E01CE004F13C0077
:1031F00000EB810A9AF80300012806D100208AF822
:103200000300E9B2204600F0D8F9022106F510606B
:1032100000EB4510816008F08000802803D129462A
:10322000204603F0C9FF6D1C0298400802900298E6
:1032300000287FF461AF206809F0F2FE00F0004042
:10324000B0F1004F1CD140F60400805920F001017C
:1032500040F60400815194F8F404012807D10020BD
:1032600084F8F40400212046FFF764FC02E02046C5
:1032700000F0D4FA2068406900F0004021684861FD
:10328000206809F0CDFE00F40060B0F5006F0ED1AB
:1032900040F60800805900F0010010B1204600F00F
:1032A00015FB2068406900F40060216848612068CF
:1032B00009F0B6FE00F48050B0F5805F7ED140F694
:1032C0000400805920F0010140F6040081511021D2
:1032D000206809F027FE002732E04FF67F3106F51F
:1032E000106000EB4710816006F5106000EB47109E
:1032F000006820F4001106F5106000EB4710016033
:103300004FF67F3106F5306000EB4710816006F51F
:10331000306000EB4710006820F4001106F53060C3
:1033200000EB4710016006F5306000EB47100068C5
:1033300040F0006106F5306000EB471001607F1C33
:103340006068B842C9D840F61C00805940F00111AD
:1033500040F61C008151206B70B1D6F8840840F013
:103360000B01C6F8841840F64400805940F00B0168
:1033700040F6440081510FE040F61400805942F2BB
:103380002B01084340F614018851081F805940F072
:103390000B014FF401608151D6F8000820F4FE6063
:1033A000C6F80008217C04F2C442206809F0A2FAA1
:1033B0002068406900F48050216800E000E0486126
:1033C000206809F02DFE00F40050B0F5005F17D121
:1033D000206808F05DFF206809F0D0FDE06000F093
:1033E00073FB0090227B2068009909F0A1FE204623
:1033F00000F0FCF92068406900F400502168486141
:10340000206809F00DFE00F00800082808D12046C9
:1034100000F00BFA2068406900F00800216848615C
:10342000206809F0FDFD00F08000802818D1DBF84D
:10343000180020F08000CBF8180001250DE005EB06
:10344000C50104F51F7000EB8100C078012803D18D
:10345000E9B22046FFF7C9FB6D1C6068A842EED8B0
:10346000206809F0DDFD00F48010B0F5801F2DD13B
:10347000012522E006F5106000EB4510D0F8009021
:1034800005EBC50104F13C0000EB81000079012847
:1034900012D109F00040B0F1004F0DD1012105EB30
:1034A000C50204F13C0000EB8200C170E8B240F0BC
:1034B00080012046FFF799FB6D1C6068A842D9D8AF
:1034C0002068406900F4801021684861206809F094
:1034D000A7FD00F40010B0F5001F44D1012538E02D
:1034E00006F5306000EB4510D0F8009005EBC50103
:1034F00004F51F7000EB81000079012828D109F044
:103500000040B0F1004F23D109F4803094F8FC144E
:1035100001F0010188421BD1012105EBC50204F530
:103520001F7000EB8200C170DBF8180040F08000D3
:10353000CBF81800DBF8140000F0800040B940F62A
:103540000400805940F4007140F60400815103E00A
:103550006D1C6068A842C3D800BF2068406900F4B1
:10356000001021684861206809F05AFD00F0804091
:10357000B0F1804F08D12046FFF709FB2068406971
:1035800000F0804021684861206809F049FD00F0A2
:10359000040004280FD12068D0F8049009F004003A
:1035A000042802D12046FFF719FB2068406840EA52
:1035B00009002168486000BFA9E470B504460D46C3
:1035C0002946D4F8080508F07FF970BD70B50446A7
:1035D0000D462946D4F8080508F09AF970BD70B573
:1035E0008AB0044614B901200AB070BD266894F868
:1035F000BD0428B9002084F8BC04204600F0A2F8DD
:10360000032084F8BD04F06B00F4807008B9002139
:103610002161206809F078F8282204F11001684639
:10362000FCF77DFF94E80F0008F046FE20B1022071
:1036300084F8BD040120D7E70021206809F025FDAA
:10364000002531E0012105EBC50204F13C0000EB4F
:103650008200417005EBC50104F13C0000F82150E7
:1036600005EBC50100EB81000581002105EBC502DA
:1036700004F13C0000EB8200017105EBC50204F18E
:103680003C0000EB8200C16005EBC50204F13C0088
:1036900000EB8200016105EBC50204F13C0000EB88
:1036A00082008161681CC5B26068A842CAD8002542
:1036B0002AE0002105EBC50204F51F7000EB820033
:1036C000417005EBC50104F51F7000F82150002181
:1036D00005EBC50200EB8200017105EBC50204F5A4
:1036E0001F7000EB8200C16005EBC50204F51F707E
:1036F00000EB8200016105EBC50204F51F7000EBD1
:1037000082008161681CC5B26068A842D1D82822B5
:1037100004F110016846FCF702FF94E80F0008F07E
:1037200003FF20B1022084F8BD0401205CE70020E3
:1037300084F83800012084F8BD04206808F0E2FE17
:10374000002051E710B586B00446142101A8FCF70B
:103750003AFF2068B0F1A04F42D100BF0020009096
:103760002048006840F001001E49086008460068D3
:1037700000F00100009000BF00BF4FF4C050019066
:103780000220029000200390032004900A2005905C
:1037900001A91548FEF740FC00BF1248001D006853
:1037A00040F080000F49091D086000BF0020009014
:1037B0000C481430006840F480400A491431086015
:1037C0000846006800F48040009000BF00BF00BFC2
:1037D000002205214320FFF75BF94320FFF748F95A
:1037E00006B010BD303802400000024070B50446FB
:1037F0000125E06808B9002506E0E068022801D14B
:10380000012501E0FDF779FB2946D4F8080508F009
:1038100028F9D4F8080508F0CFF870BD10B50446B3
:10382000D4F8080508F0FEF810BD10B50446D4F829
:10383000080508F002F910BD70B504460D4600BF3A
:1038400094F8BC04012801D1022070BD012084F845
:10385000BC0400BF84F838502946206809F049FCB0
:1038600000BF002084F8BC0400BF00BFEDE710B526
:10387000044604F2C441D4F8080508F009F910BD63
:1038800070B50446256800BF94F8BC04012801D136
:10389000022070BD012084F8BC0400BFA06A01288A
:1038A00006D1A069012803D0A86B40F48030A8633A
:1038B000206809F005FB206808F012FE00BF002018
:1038C00084F8BC0400BF00BFE3E7000010B5044665
:1038D000D4F8080508F039F92068D0F8000E40F057
:1038E00001002168C1F8000E206A28B10348006871
:1038F00040F006000149086010BD000010ED00E036
:1039000070B504460D460CB9012070BD58480068DA
:1039100000F00700A84209D255490D70084600681A
:1039200000F00700A84201D00120EEE7207800F067
:10393000020002281DD1207800F00400042805D1DF
:103940004C48006840F4E0504A490860207800F094
:103950000800082805D14748006840F46040454900
:1039600008604448006820F0F000A168084341491D
:103970000860207800F00100A8B36068012807D132
:103980003C4808380068C0F34040B8B90120BCE7A3
:103990006068022802D06068032807D135480838DB
:1039A0000068C0F3406048B90120AEE731480838EC
:1039B0000068C0F3400008B90120A6E72D48006860
:1039C00020F00300616808432A490860FEF724FCE0
:1039D000064609E0FEF720FC801B41F28831884250
:1039E00002D9032091E707E02248006800F00C00AC
:1039F0006168B0EB810FEDD11D48006800F0070051
:103A0000A84209D91A490D700846006800F007005D
:103A1000A84201D0012078E7207800F004000428B3
:103A200007D11448006820F4E050E16808431149C8
:103A30000860207800F00800082808D10D480068C8
:103A400020F46040216940EAC1000A49086000F0A2
:103A500061F808490968C1F30311074A515CC8407D
:103A60000649086006480068FEF77EFF00204CE724
:103A7000003C0240083802409411010894000020E4
:103A80008C0000200F2202600D4A126802F003022F
:103A900042600B4A126802F0F0028260084A126823
:103AA00002F4E052C260064A126802F46042D20890
:103AB0000261044A126802F007020A6070470000BF
:103AC00008380240003C024001480068704700008E
:103AD0009400002000B5FFF7F7FF04490968C1F31F
:103AE0008221034A515CC84000BD000008380240F2
:103AF000A411010800B5FFF7E7FF04490968C1F305
:103B00004231034A515CC84000BD00000838024001
:103B1000A41101082DE9F047002400250026A14644
:103B20002548006800F00C0020B1042805D00828C2
:103B30003AD105E0DFF8849039E0DFF8849036E090
:103B40001D48001F006800F03F041B48001F00686C
:103B500000F4800078B11A481749091F0968C1F3B9
:103B60008811A0FB01700146224600233846FCF76D
:103B7000FBFB05460EE011480F49091F0968C1F318
:103B80008811A0FB01700146224600233846FCF74D
:103B9000EBFB05460848001F0068C0F30140401CCD
:103BA0004600B5FBF6F902E0DFF8109000BF00BF59
:103BB0004846BDE8F0870000083802400024F400C1
:103BC000001BB700F8B504460CB90120F8BD2078F9
:103BD00000F00100002874D0F948006800F00C00E3
:103BE00004280DD0F648006800F00C00082813D116
:103BF000F348001F006800F48000B0F5800F0BD17F
:103C0000EF4808380068C0F34040002859D0606889
:103C1000002856D10120D9E700BF6068B0F5803F89
:103C200008D1E7480838006840F48030E449083992
:103C300008601EE06068B0F5A02F0DD1E04808389C
:103C4000006840F48020DE490839086008460068B2
:103C500040F4803008600CE0D9480838006820F44F
:103C60008030D749083908600846006820F4802071
:103C7000086000BF606890B1FEF7CEFA054606E026
:103C8000FEF7CAFA401B642801D903209EE7CC48FE
:103C900008380068C0F340400028F1D011E0FEF77A
:103CA000BBFA054606E0FEF7B7FA401B642801D9C7
:103CB00003208BE7C24808380068C0F34040002862
:103CC000F1D1207800F0020002285FD1BC480068E2
:103CD00000F00C0058B1BA48006800F00C00082849
:103CE0001CD1B748001F006800F48000B0B9B44888
:103CF00008380068C0F3400020B1E068012801D016
:103D0000012063E7AE480838006820F0F800216918
:103D100040EAC100AA490839086037E0E06800B30A
:103D20000120A8490860FEF777FA054606E0FEF78D
:103D300073FA401B022801D9032047E7A04808383E
:103D40000068C0F340000028F1D09D4808380068A2
:103D500020F0F800216940EAC1009949083908605B
:103D600014E0002097490860FEF756FA054606E081
:103D7000FEF752FA401B022801D9032026E790489B
:103D800008380068C0F340000028F1D1207800F026
:103D9000080008282CD16069A8B101208A49086070
:103DA000FEF73AFA054606E0FEF736FA401B02280F
:103DB00001D903200AE782486C300068C0F3400054
:103DC0000028F1D014E000207F490860FEF724FAB3
:103DD000054606E0FEF720FA401B022801D9032021
:103DE000F4E677486C300068C0F340000028F1D159
:103DF000207800F00400042870D100277048383083
:103E0000006800F0805090B900BF002000906C481E
:103E10003830006840F08050694938310860084601
:103E2000006800F08050009000BF00BF0127674885
:103E3000006800F48070B0B96448006840F4807095
:103E400062490860FEF7E8F9054606E0FEF7E4F986
:103E5000401B022801D90320B8E65C48006800F442
:103E600080700028F2D000BFA068012808D1544813
:103E70006830006840F001005149683108601DE079
:103E8000A06805280DD14E486830006840F0040055
:103E90004B49683108600846006840F0010008603E
:103EA0000CE047486830006820F001004449683160
:103EB00008600846006820F00400086000BFA068A1
:103EC000A8B1FEF7A9F9054609E0FEF7A5F9401BE0
:103ED00041F28831884202D9032077E626E038484B
:103EE00068300068C0F340000028EED013E0FEF711
:103EF00093F9054608E0FEF78FF9401B41F288313F
:103F0000884201D9032061E62D4868300068C0F37B
:103F100040000028EFD1012F07D129483830006830
:103F200020F0805026493831086000BFA069002881
:103F300045D02348006800F00C0008285DD0A06937
:103F4000022845D100201F490866FEF765F905469D
:103F500006E0FEF761F9401B022801D9032035E68F
:103F6000174808380068C0F340600028F1D1D4E950
:103F700007010843616A40EA81110122A06AC2EB8D
:103F8000500041EA00412C20005D41EA00600C49EC
:103F9000091F086001200B490866FEF73DF9054638
:103FA00006E0FEF739F9401B022801D903200DE68F
:103FB000034808380068C0F340600028F1D049E0A9
:103FC0000838024000004742800E4742007000401F
:103FD000002021490866FEF71FF9054606E0FEF7B6
:103FE0001BF9401B022801D90320EFE51B4800689C
:103FF000C0F340600028F2D12CE0A069012800D174
:10400000E4E51648001D0668A069012820D006F4E2
:104010008001E06981421BD106F03F01206A8142A4
:1040200016D147F6C0703040616AB0EB811F0FD1E6
:1040300006F440310122A06AC2EB5000B1EB004F00
:1040400006D106F070612C20005DB1EB006F01D04D
:104050000120BBE50020B9E50000474200380240DE
:1040600010B504460CB9012010BD606A38B960680B
:10407000B0F5827F00D105E00021E16102E000217E
:10408000216161610021A16294F8510028B90020EA
:1040900084F85000204600F047F8022084F85100D0
:1040A0002068006820F0400021680860A08800F4C3
:1040B0008270218901F404410843A18901F400615F
:1040C0000843217C01F002010843217D01F0010138
:1040D0000843218B01F400710843217F01F038016E
:1040E00008432021095D01F080010843218D01F47E
:1040F00000510843216808600421A06901EA1040CA
:1041000094F8241001F010010843216848602068E9
:10411000C06920F400602168C8610020606501204A
:1041200084F8510000209FE710B586B004461421A2
:1041300001A8FCF748FA5249206888427ED100BFA6
:10414000002000904F48006840F480504D490860BE
:104150000846006800F48050009000BF00BF00BF18
:104160000020009047481438006840F0020045499C
:10417000143908600846006800F00200009000BF93
:1041800000BF00BF002000900846006840F001001A
:1041900008600846006800F00100009000BF00BF02
:1041A000102001900220029001200390032004902F
:1041B0000520059001A93448FDF72EFF0820019045
:1041C0000220029000200390032004900520059017
:1041D00001A92D48FDF720FF8020019002200290C8
:1041E00001200390032004900520059001A9274891
:1041F000FDF712FF2648274908604FF0C06048606D
:10420000002124488160C1604FF480610161002178
:1042100041618161C1614FF440310162002141621D
:10422000FDF7C2FD08B1FCF768FE00BF1948E06465
:10423000846300BF16481830174900E01EE008608C
:104240004FF0C06048604021134881600021C16088
:104250004FF480610161002141618161C1614FF4CE
:104260000031016200214162FDF79EFD08B1FCF7BB
:1042700044FE00BF0848A064846300BF06B010BDC0
:104280000030014044380240000402400000024077
:10429000406402401C0700207C0700202DE9FF5FDE
:1042A0000446884691461D460E9E0120029000203D
:1042B000019000BF94F85000012803D1022004B0FF
:1042C000BDE8F09F012084F8500000BFFDF7A4FF77
:1042D000074694F851B060680390AA46BBF1010FFD
:1042E0000BD00398B0F5827F04D1A06810B9BBF160
:1042F000040F02D002200190DBE0B8F1000F03D0E0
:10430000B9F1000F00D015B901200190D1E094F867
:104310005100042802D0052084F851000020606577
:10432000C4F83890E587A587C4F83080E586A5866F
:10433000206460642068006800F04000402805D0D8
:104340002068006840F0400021680860E068B0F52F
:10435000006F4AD1606810B1BAF1010F09D1206B2A
:1043600000882168C860206B801C2063E08E401E9E
:10437000E08633E02068806800F00200022810D157
:10438000E08E70B1029801280BD1206B0088216863
:10439000C860206B801C2063E08E401EE0860020F9
:1043A00002902068806800F0010068B1E08F58B189
:1043B0002068C068A16B0880A06B801CA063E08FA0
:1043C000401EE08701200290FDF726FFC01BB0428F
:1043D00004D3701C10B1032001906AE0E08E002825
:1043E000C8D1E08F0028C5D14AE0606810B1BAF1A9
:1043F000010F09D1206B007821680873206B401CE5
:104400002063E08E401EE08634E02068806800F083
:104410000200022810D1E08E70B1029801280BD161
:10442000206B007821680873206B401C2063E08EAD
:10443000401EE086002002902068806800F00100A5
:1044400068B1E08F58B12068C068A16B0870A06B9C
:10445000401CA063E08F401EE08701200290FDF722
:10446000DBFEC01BB04201D3701C00B916B903209B
:1044700001901EE0E08E0028C7D1E08F0028C4D153
:104480003A463146204605F0D1FC20B1012001908A
:10449000202060650DE0A06850B900BF00200090AA
:1044A0002068C068009020688068009000BF00BF4E
:1044B00000BF012084F8510000BF002084F85000A4
:1044C00000BF0198FBE67047704710B50346002215
:1044D00000BF93F83C00012801D1022010BD01204B
:1044E00083F83C0000BF22F0FF00CC6840EA0402E1
:1044F00022F440708C6840EA040222F480604C6828
:1045000040EA040222F400600C6840EA040222F44B
:1045100080500C6940EA040222F400504C6940EAE1
:10452000040222F48040CC6940EA04021868426424
:1045300000BF002083F83C0000BF00BFCEE70000B2
:1045400030B502460B4600BF92F83C00012801D16D
:10455000022030BD012082F83C0000BF022082F81A
:104560003D00106844681068816824F07004186881
:10457000044310684460184D1068A8421BD01068AE
:10458000B0F1804F17D0154D1068A84213D0144DCC
:104590001068A8420FD0134D1068A8420BD0124DDE
:1045A0001068A84207D0114D1068A84203D0104DE2
:1045B0001068A84205D121F08001586801431068B5
:1045C0008160012082F83D0000BF002082F83C009D
:1045D00000BF00BFBDE70000000001400004004034
:1045E00000080040000C0040000401400040014071
:1045F0000018004010B504460CB9012010BD94F815
:104600003D0028B9002084F83C00204600F026F840
:10461000022084F83D00211D206805F0C1FD012025
:1046200084F8460000BF84F83E0001213F20015578
:10463000402001554120015500BF00BF012084F8F2
:10464000420043200155442001554520015500BF3B
:10465000012084F83D000020D0E7000038B5044672
:104660001949206888420FD100BF002000901748E8
:10467000006840F40030154908600846006800F4FE
:104680000030009000BF1DE011492068884219D118
:1046900000BF002000900D48001F006840F080001F
:1046A0000A49091F08600846006800F08000009071
:1046B00000BF00BF002211462C20FEF7E9F92C2094
:1046C000FEF7D6F938BD00000044014044380240EE
:1046D000001C0040014691F83D00012801D0012056
:1046E0007047022081F83D000868C06840F0010072
:1046F0000B68D8601A4B086898421BD00868B0F164
:10470000804F17D0174B0868984213D0164B086893
:1047100098420FD0154B086898420BD0144B08688C
:10472000984207D0134B0868984203D0124B086890
:1047300098420CD10868806800F00702062A0CD065
:104740000868006840F001000B68186005E0086820
:10475000006840F001000B6818600020C0E700000E
:10476000000001400004004000080040000C004030
:10477000000401400040014000180040704710B59F
:10478000044620680069C0F34000D8B12068C068C2
:10479000C0F34000B0B16FF0020021680861012051
:1047A00020772068806900F0030018B12046FFF7E9
:1047B000E5FF05E0204600F003F9204600F0D0F9BF
:1047C0000020207720680069C0F38000D8B12068FD
:1047D000C068C0F38000B0B16FF0040021680861C8
:1047E000022020772068806900F4407018B12046CC
:1047F000FFF7C4FF05E0204600F0E2F8204600F095
:10480000AFF90020207720680069C0F3C000D8B15C
:104810002068C068C0F3C000B0B16FF00800216824
:104820000861042020772068C06900F0030018B1F7
:104830002046FFF7A3FF05E0204600F0C1F8204620
:1048400000F08EF90020207720680069C0F3001086
:10485000D8B12068C068C0F30010B0B16FF010008C
:1048600021680861082020772068C06900F4407042
:1048700018B12046FFF782FF05E0204600F0A0F8BF
:10488000204600F06DF9002020772068006900F0D4
:10489000010058B12068C06800F0010030B16FF02D
:1048A000010021680861204600F05CF92068006979
:1048B000C0F3C01058B12068C068C0F3C01030B158
:1048C0006FF08000216808612046FFF7FCFD20683A
:1048D0000069C0F3801058B12068C068C0F3801030
:1048E00030B16FF0400021680861204600F05CF9AB
:1048F00020680069C0F3401058B12068C068C0F358
:10490000401030B16FF02000216808612046FFF7A9
:10491000DBFD10BD10B586B00446142101A8FBF7DD
:1049200052FE2249206888421DD100BF002000901D
:104930001F48006840F010001D49086008460068E4
:1049400000F01000009000BF00BF48150190022049
:1049500002900020039004900120059001A91548C1
:10496000FDF75AFB20E01449206888421CD100BFA3
:10497000002000900E48006840F020000C490860BC
:104980000846006800F02000009000BF00BF4020F3
:1049900001900220029000200390049003200590D3
:1049A00001A90648FDF738FB06B010BD0000014024
:1049B0003038024000100240004401400014024020
:1049C00070472DE9F04104460D461646002700BF0A
:1049D00094F83C00012802D10220BDE8F0810120BA
:1049E00084F83C0000BF36B1042E1BD0082E31D015
:1049F0000C2E5ED145E02946206805F03DFC20687C
:104A0000806940F00800216888612068806920F092
:104A10000400216888612068806929690843216849
:104A2000886148E02946206805F05EFC20688069BE
:104A300040F40060216888612068806920F480600B
:104A40002168886120688069296940EA012021681D
:104A5000886130E02946206805F084FC2068C06940
:104A600040F008002168C8612068C06920F0040097
:104A70002168C8612068C069296908432168C86144
:104A800019E02946206805F0A9FC2068C06940F4B7
:104A900000602168C8612068C06920F480602168D6
:104AA000C8612068C069296940EA01202168C8619D
:104AB00001E0012700BF00BF00BF002084F83C00D8
:104AC00000BF384689E710B504460CB9012010BD77
:104AD00094F83D0028B9002084F83C00204600F0FE
:104AE00025F8022084F83D00211D206805F058FBC0
:104AF000012084F8460000BF84F83E0001213F20D9
:104B00000155402001554120015500BF00BF012043
:104B100084F84200432001554420015545200155A9
:104B200000BF012084F83D000020D0E708B50A4A04
:104B3000016891420FD100BF002100910749096827
:104B400041F00101054A11601146096801F00101B7
:104B5000009100BF00BF08BD000001404438024082
:104B60007047000010B504460B492068884201D107
:104B7000FDF7D0FE0949206888420BD10848406AF9
:104B800007498862002048620648406B05498863EF
:104B90000020486310BD000000100040001C0040D1
:104BA0006C6A0020086A0020704770477047000058
:104BB0002DE9F84F0446206805682068C66820681B
:104BC00047694FF00009CA4605F00F09B9F1000F17
:104BD0000AD105F0200038B106F0200020B12046AF
:104BE00005F076FCBDE8F88FB9F1000F7CD007F036
:104BF000010018B906F49070002875D005F0010086
:104C000030B106F4807018B1206C40F001002064CF
:104C100005F0040030B107F0010018B1206C40F03D
:104C20000200206405F0020030B107F0010018B165
:104C3000206C40F00400206405F0080048B106F044
:104C4000200010B907F0010018B1206C40F00800F6
:104C50002064206C002846D005F0200028B106F022
:104C6000200010B1204605F033FC20684069C0F3F5
:104C7000801A206C00F0080010B9BAF1000F2DD096
:104C8000204605F0DFFB2068406900F04000402826
:104C900020D100BF00BF2168143151E8001F21F06E
:104CA00040002168143141E80002002AF3D100BF1E
:104CB000A06B50B17548A16B0865A06BFCF740FF75
:104CC00088B1A06B016D88470DE02046FFF76EFFAD
:104CD00009E009E02046FFF769FF04E02046FFF7FE
:104CE00065FF002020647DE7206B012876D105F068
:104CF0001000002872D006F010000028FAD000BF83
:104D000000200090206800680090206840680090B3
:104D100000BF00BF2068406900F0400040285ED11D
:104D2000A06B006840681FFA80F8B8F1000F54D0FB
:104D3000A08D404551DDA4F82E80A06BC069B0F570
:104D4000807F43D000BF00BF21680C3151E8001FB5
:104D500021F4807021680C3141E80002002AF3D16F
:104D600000BF00BF00BF2168143151E8001F21F0CF
:104D700001002168143141E80002002AF3D100BF8C
:104D800000BF00BF2168143151E8001F21F040002E
:104D90002168143141E80002002AF3D100BF20202D
:104DA00084F83E000020206300BF00BF21680C3162
:104DB00051E8001F21F0100021680C3141E8000289
:104DC000002AF3D100BFA06BFCF764FEA08DE28D3A
:104DD000801A81B22046FFF7E8FE03E740E0A08D8D
:104DE000E18D401A1FFA80F8E08DC0B3B8F1000FD2
:104DF00035D000BF00BF21680C3151E8001F21F4FD
:104E0000907021680C3141E80002002AF3D100BF04
:104E100000BF00BF2168143151E8001F21F00100DC
:104E20002168143141E80002002AF3D100BF20209C
:104E300084F83E000020206300BF00BF21680C31D1
:104E400051E8001F21F0100021680C3141E80002F8
:104E5000002AF3D100BF41462046FFF7A6FEC1E677
:104E600005F0800030B106F0800018B1204605F052
:104E7000C1FCB7E605F0400030B106F0400018B1C3
:104E8000204605F015FBADE600BFABE631A40008F7
:104E900010B504460CB9012010BDA06900B100E0B6
:104EA00000BF94F83D0028B9002084F83C0020465B
:104EB00000F028F8242084F83D002068C06820F421
:104EC00000502168C860204605F07EFB206800691C
:104ED00020F49040216808612068406920F02A0091
:104EE000216848612068C06840F400502168C860AB
:104EF00000202064202084F83D0084F83E0000203B
:104F0000CAE7000010B586B00446142101A8FBF7DB
:104F10005AFB8049206888427ED100BF0020009063
:104F20007D48006840F010007B4908600846006832
:104F300000F01000009000BF00BF00BF00200090F4
:104F400075481438006840F002007349143908604D
:104F50000846006800F00200009000BF00BF00BFDC
:104F6000002000900846006840F0010008600846F4
:104F7000006800F00100009000BF00BF8020019099
:104F80000220029000200390032004900720059047
:104F900001A96248FDF740F84FF40070019002202B
:104FA000029000200390032004900720059001A99F
:104FB0005B48FDF731F85B485B4908604FF00060E3
:104FC0004860002158488160C1604FF480610161F0
:104FD0000021416181614FF48071C1614902016228
:104FE00000214162FCF7E0FE08B1FBF786FF00BF3D
:104FF0004D48A063846300BF4A4830304B49086085
:105000004FF0006048604021484881600021C16045
:105010004FF48061016100E01BE00021416181618A
:10502000C1614FF40031016200214162FCF7BCFE16
:1050300008B1FBF762FF00BF3C486063846300BFB8
:10504000002205212520FDF723FD2520FDF710FD79
:105050005EE03749206888425AD100BF00200090A6
:105060002D48001F006840F480202B49091F08606C
:105070000846006800F48020009000BF00BF00BF19
:105080000020009024481438006840F004002249B1
:10509000143908600846006800F00400009000BF62
:1050A00000BF4FF440600190022002900020039066
:1050B000032004900720059001A91E48FCF7ACFFCF
:1050C0001D481E4908604FF00060486000211B48E1
:1050D0008160C1604FF480610161002141618161A3
:1050E0004FF48071C161002101624162FCF75CFEF6
:1050F00008B1FBF702FF00BF1048A063846300BF44
:10510000002205212720FDF7C3FC2720FDF7B0FC76
:1051100006B010BD001001404438024000040240B7
:1051200000000240886402403C0900209C090020E5
:10513000004800400008024028600240FC090020AE
:105140007047704700BFFEE7014608684069C0F33A
:105150008020B0B16FF480600A685061002008635D
:10516000202081F83D00002081F83E00086C40F0CE
:105170000400086400BF002081F83C0000BF01204B
:1051800070470020FCE700002DE9F84304460F4675
:1051900015469946DDE908862068006840F480607D
:1051A000216808602068006840F480702168086009
:1051B000434600224FF001112046009600F032F9DC
:1051C00060B12068006800F48070B0F5807F02D183
:1051D0004FF4007020640320BDE8F88307F0FE0060
:1051E00021680861334642463E49204600F05DF999
:1051F00008B10120F0E700BF00200090206840695E
:10520000009020688069009000BF00BF3246414690
:10521000204600F0ECF950B1206C042805D120683C
:10522000006840F40070216808600120D4E7B9F1FB
:10523000010F03D1E8B22168086117E0C5F3072028
:105240002168086132464146204600F0D0F950B14D
:10525000206C042805D12068006840F400702168A3
:1052600008600120B8E7E8B221680861324641468B
:10527000204600F0BCF950B1206C042805D120680C
:10528000006840F40070216808600120A4E72068ED
:10529000006840F4807021680860434600224FF0A7
:1052A00001112046009600F0BDF858B12068006852
:1052B00000F48070B0F5807F02D14FF4007020645C
:1052C000032089E7F8B240F0010021680861334605
:1052D00042460449204600F0E8F808B101207BE787
:1052E000002079E7020001002DE9F84304468846D2
:1052F00015469946DDE908672068006840F480702B
:1053000021680860334600224FF0011120460097C3
:1053100000F088F860B12068006800F48070B0F593
:10532000807F02D14FF4007020640320BDE8F88331
:1053300008F0FE00216808613B46324621492046BC
:1053400000F0B3F808B10120F0E700BF00200090A2
:1053500020684069009020688069009000BF00BF0D
:105360003A463146204600F042F950B1206C0428FC
:1053700005D12068006840F40070216808600120B1
:10538000D4E7B9F1010F03D1E8B22168086117E051
:10539000C5F30720216808613A463146204600F0EF
:1053A00026F950B1206C042805D12068006840F42B
:1053B0000070216808600120B8E7E8B22168086140
:1053C0000020B3E70200010070B504460D46164602
:1053D00020E02046FFF7B8FE08B1012070BD681C30
:1053E000C0B1FCF719FF801BA84200D895B9002076
:1053F0002063202084F83D00002084F83E00206CCB
:1054000040F02000206400BF002084F83C0000BF72
:105410000120E3E720684069C0F380000028D8D06D
:105420000020DBE72DE9F04104460D4617461E46F5
:10543000DDF818801CE0701CD0B1FCF7EDFEA0EB8D
:105440000800B04200D89EB900202063202084F8D4
:105450003D00002084F83E00206C40F020002064D5
:1054600000BF002084F83C0000BF0120BDE8F081AF
:10547000C5F3074001280AD120684069A9B2084055
:10548000A9B2884201D101200BE0002009E0206888
:105490008069A9B20840A9B2884201D1012000E088
:1054A0000020B842C7D00020E0E72DE9F0410446D3
:1054B0000D4616461F463DE020684069C0F3802037
:1054C000E8B12068006840F40070216808606FF45B
:1054D00080602168486100202063202084F83D001E
:1054E000002084F83E00206C40F00400206400BFDF
:1054F000002084F83C0000BF0120BDE8F081701C52
:10550000C0B1FCF789FEC01BB04200D896B900209C
:105510002063202084F83D00002084F83E00206CA9
:1055200040F02000206400BF002084F83C0000BF51
:105530000120E2E7C5F3074001280AD1206840694D
:10554000A9B20840A9B2884201D101200BE0002095
:1055500009E020688069A9B20840A9B2884201D157
:10556000012000E000200028A6D00020C5E770B58B
:1055700004460D46164632E020684069C0F300102C
:10558000A0B16FF010002168486100202063202046
:1055900084F83D00002084F83E00206C206400BFA9
:1055A000002084F83C0000BF012070BDFCF734FEF1
:1055B000801BA84200D895B900202063202084F8E1
:1055C0003D00002084F83E00206C40F02000206464
:1055D00000BF002084F83C0000BF0120E5E7206800
:1055E0004069C0F380100028C6D00020DDE770B508
:1055F00004460D46164620E02046FFF7A5FD08B1FB
:10560000012070BD681CC0B1FCF706FE801BA842DB
:1056100000D895B900202063202084F83D000020A8
:1056200084F83E00206C40F02000206400BF002081
:1056300084F83C0000BF0120E3E720684069C0F324
:10564000C0100028D8D00020DBE7F0EE400A90ED33
:10565000080A20EE200AD0ED061A90ED002A01EE8D
:10566000C20AD0ED071A90ED012A01EEC20AB0EE8F
:10567000401A90ED030AD0ED001A20EE210AD0ED79
:10568000021A01EE810AD0ED041A90ED012A01EE12
:10569000820AD0ED091A20EE210A80ED0A0A90ED67
:1056A000000A80ED010A80ED001A90ED0A0A7047A9
:1056B00010B588B00446202216496846FAF72FFF35
:1056C0009DED000A84ED020A9DED010A84ED030AB6
:1056D0009DED020A84ED040A9DED030A84ED050A9E
:1056E0009DED040A84ED060A9DED050A84ED070A86
:1056F0009DED060A84ED080A9DED070A84ED090A6E
:105700009FED050A84ED000A9FED030A84ED010A6E
:1057100008B010BDAC1101080000000038B502E06F
:10572000642009F09AFCFBF74BF90028F8D102E05D
:10573000642009F092FC09F0F7FB0028F8D12F4A09
:10574000A2F10C01101DFBF755F9002003469FED57
:105750002C2ADFED2B1A9FED2B1ADFED2B0A9FED84
:105760002B0A2B4A014600902A4809F07FFE2A4A5C
:1057700022490C392948FAF799FF2048103890ED52
:10578000010A274880ED000A264880ED000A2648D5
:1057900080ED000A1948103890ED020A204880ED8B
:1057A000010A204880ED010A1F4880ED010A1348D4
:1057B000103890ED030A1A4880ED020A194880ED6E
:1057C000020A194880ED020A002009F087FC04460D
:1057D0000AF0E8FF1549086010211548C161FEF77D
:1057E0003FFC08B1FBF789FB08221249124804F07C
:1057F0005DFA01201149087038BD000010640020D6
:1058000000000000E6B1617F0080894500A08C4562
:10581000580200207C6400202864002028650020B5
:10582000F8640020EC640020E0640020BC0100204B
:10583000C4060020C0010020C8010020E5010020AE
:105840002DED048B82B00024FFF768FFEAE10BF036
:105850000BF8019000BF4FF0FF3101200AF062FA0F
:105860000128F8D1F048007808B9601C84B2EE48ED
:10587000007838B9B4F5FA7F04DD0120EA490870F0
:105880004FF42F74E948007800F0040048B1E7486D
:10589000007820F00400E5490870E549E548FBF789
:1058A0005BF8E548007800F0040060B1E248007859
:1058B00020F00400E0490870DD4A0C32A2F11C011E
:1058C000DE48FAF7F3FFDE48007800F0040090B1FC
:1058D000DB48007820F00400D9490870D449091F3A
:1058E000D848FBF775F9D2481438D0ED040AB0EE69
:1058F000600A08F009FED44890ED000AD34880ED14
:10590000000AD34890ED000ACF4880ED000A90EDE0
:10591000000AD048D0ED000A20EE200ACB48D0ED96
:10592000000ACC4890ED011A00EE810AC0481438F4
:10593000D0ED010AC74890ED021A00EE810AC44872
:1059400080ED000AC04890ED010AC04880ED010AD0
:10595000BF4890ED010ABC4880ED010A90ED010AB4
:10596000BC48D0ED000A20EE200AB848D0ED010A6C
:10597000B84890ED011A00EE810AAD481438D0ED18
:10598000020AB44890ED021A00EE810AB04880ED98
:10599000010AAD4890ED020AAC4880ED020AAC481D
:1059A00090ED020AA84880ED020A90ED020AA9488B
:1059B000D0ED000A20EE200AA448D0ED020AA54846
:1059C00090ED011A00EE810A99481438D0ED030ACF
:1059D000A04890ED021A00EE810A9D4880ED020A6F
:1059E0009D4B024692499FED9D0A9D48FAF772FE33
:1059F0009C4B1A1F111F9A4808F02DFCFCF70CFC59
:105A0000994908609948006898B108460068974924
:105A10000968401A00EE100AF8EEC00A944890EDAA
:105A2000000A944890ED001A01EE200A904880ED9B
:105A3000000A8C48083890ED000ADFED8F0A20EE4E
:105A4000200ADFED8E0A80EE201A8D4880ED001AC4
:105A50008448083890ED010ADFED870A20EE200A1D
:105A6000DFED860A80EE201A854880ED011A7D4818
:105A7000083890ED020ADFED800A20EE200ADFED03
:105A80007F0A80EE201A7E4880ED021A7648006870
:105A9000764908607348083890ED000A8DED000AD9
:105AA000784800680BF0A2FA41EC190B9FED760BD9
:105AB00053EC102B0BF036F841EC180B0BF000F800
:105AC00070490860084690ED000ADFED710AB4EEF7
:105AD000E00AF1EE10FA07DD90ED000ADFED6C0A46
